:020000040800F2
:10000000C02600209D010008F908000865070008C7
:10001000F508000819060008B70F000800000000E6
:10002000000000000000000000000000190C0008A3
:100030004906000800000000810900082D0D000895
:10004000B7010008B7010008B7010008B7010008B0
:10005000B7010008B7010008B7010008B7010008A0
:10006000B7010008B7010008B7010008B701000890
:10007000B7010008B7010008B7010008B701000880
:10008000B7010008B7010008B7010008B701000870
:10009000B7010008B7010008B7010008B701000860
:1000A000B7010008B7010008B7010008B701000850
:1000B000B7010008B7010008B7010008B701000840
:1000C000B7010008B7010008B7010008B701000830
:1000D000B7010008910D0008B7010008B70100083A
:1000E000B7010008B7010008B701000800F002F8E6
:1000F00000F045F80AA090E8000C82448344AAF17D
:100100000107DA4501D100F03AF8AFF2090EBAE87A
:100110000F0013F0010F18BFFB1A43F0010318473B
:1001200080170000A0170000103A24BF78C878C1DB
:10013000FAD8520724BF30C830C144BF04680C60ED
:10014000704700000023002400250026103A28BF35
:1001500078C1FBD8520728BF30C148BF0B60704739
:10016000642900F0BB80782900F0F480732900F046
:10017000DE81002070471FB51FBD10B510BD00F017
:1001800018FA1146FFF7F7FF00F096FF00F036FA75
:1001900003B4FFF7F2FF03BC00F00FFF09488047EC
:1001A00009480047FEE7FEE7FEE7FEE7FEE7FEE759
:1001B000FEE7FEE7FEE7FEE704480549054A064B71
:1001C00070470000310D0008ED000008C02000203D
:1001D000C0260020C0220020C0220020704700005E
:1001E0000FB4044910B503AA029800F0A5F910BC99
:1001F0005DF814FB0C0000200FB41CB5074B06AAD9
:100200007B4469460090059800F067F90020694634
:1002100000F076F91CBC5DF814FB0000FD02000044
:100220002DE9F0410E460446002020622046E16898
:10023000884730B3252805D0D4E901219047206AAA
:10024000401CF2E7E168204600278847050018D0E7
:10025000A5F14100192802D820354FF40067324635
:10026000294620462760FFF77BFF40B1012804D0D4
:10027000F61D26F007060836D8E7361DD6E72846CD
:10028000DAE7206ABDE8F08170B50C460546012A20
:1002900005D02878800600D5EA69002302E0012312
:1002A00005E05B1C934202D2E05C0028F9D1A8690A
:1002B000E618C01AA861286A184428622846AFF3D5
:1002C000008004E0D5E9012114F8010B9047B44205
:1002D000F8D32846AFF3008070BD00002DE9F0414F
:1002E0000646002410687529314616A510D0AFF3D4
:1002F0000080002802DA404213A507E031688A072F
:1003000001D512A502E0490704D511A5012401E099
:10031000AFF3008000210A2206F1240709E0B0FBB8
:10032000F2FCB0FBF2F302FB1C00303078541846AC
:10033000491C0028F3D123462A463046BDE8F04147
:1003400000F06CB8000000002D0000002B00000041
:100350002000000070B504460D4621461068AFF33A
:1003600000802188090502D50F4A7A4402E00E4A2E
:100370007A440E32002104F1240305E000F00F0658
:100380000009965D5E54491C0028F7D120780023AF
:10039000000704D5702D02D009B102231132204686
:1003A000BDE8704000F03AB80A15000030B50546C7
:1003B0000B462A4613F8014B12F8010B08B1A04274
:1003C000F8D01CB1002802D06D1CF1E7284630BDE2
:1003D0004FF000020429C0F0128010F0030C00F06E
:1003E000BF80CCF1040CBCF1020F18BF00F8012B48
:1003F000A8BF20F8022BA1EB0C0100F0B1B85FEA16
:10040000C17C24BF00F8012B00F8012B48BF00F885
:10041000012B704770477047704770472DE9F047D0
:100420000D4699469246044600F124080168880664
:1004300004D5E06921F01001216000E00120A8420C
:1004400001DD471B00E00027A1697A1902EB0900D2
:10045000081AA0612078C00602D42046AFF30080BD
:10046000002608E0D4E901211AF806009047206A26
:10047000401C761C20624E45F4DB2078C0060AD56D
:100480002046AFF3008006E0D4E9012130209047F8
:10049000206A401C2062381EA7F10107F4DC07E047
:1004A000D4E9012118F805009047206A401C206219
:1004B000281EA5F10105F3DC2046AFF3008020786B
:1004C000000602D50220BDE8F0870120FBE700000E
:1004D00001694A1C02610878704700B58FB0CDE908
:1004E00001310021059105497944CDE903101146F8
:1004F0006846FFF795FE0FB000BD0000E5FFFFFF67
:100500000A6802F8010B0A60704710B5436913B11D
:10051000AFF3008001E0FFF7B7FE012010BD1278B5
:1005200000F124010A7000224A700122EDE71168EF
:100530004FF0FF32E9E70000074B70B50D467B44F2
:10054000FFF7CBFF0446284600F02FF810B14FF01C
:10055000FF3070BD204670BD5B0B00004FF0000205
:1005600000B5134694469646203922BFA0E80C50A9
:10057000A0E80C50B1F12001BFF4F7AF090728BF84
:10058000A0E80C5048BF0CC05DF804EB890028BF00
:1005900040F8042B08BF704748BF20F8022B11F029
:1005A000804F18BF00F8012B7047007B00F08000DF
:1005B0007047754600F02CF8AE4605006946534674
:1005C00020F00700854618B020B5FFF7F5FDBDE81F
:1005D00020404FF000064FF000074FF000084FF0AA
:1005E000000B21F00701AC46ACE8C009ACE8C0093B
:1005F000ACE8C009ACE8C0098D46704710B50446A8
:10060000AFF300802046BDE81040FFF7C1BD0000F9
:10061000004870475C20002000BFFEE730B502466E
:1006200000200EE0C41C135D155C15551354841C8A
:10063000135D441C155D841C1555441C1355041D85
:1006400020B28842EEDB30BD70472DE9F041024612
:1006500000250026002000230024002791F803C075
:100660000CF00F0591F803C00CF0100CBCF1000F5A
:1006700003D091F802C04CEA050591F800C0BCF126
:10068000000F31D0146800202BE04FF0010C0CFA61
:1006900000F3B1F800C00CEA03069E4220D18300AB
:1006A0004FF00F0C0CFA03F7BC4305FA03FC4CEABD
:1006B000040491F803C0BCF1280F06D14FF0010CDF
:1006C0000CFA00FCC2F814C00AE091F803C0BCF1B7
:1006D000480F05D14FF0010C0CFA00FCC2F810C015
:1006E000401C0828D1D31460B1F800C0BCF1FF0F42
:1006F00034DD546800202EE000F1080C4FF00108B2
:1007000008FA0CF3B1F800C00CEA03069E4221D1AE
:1007100083004FF00F0C0CFA03F7BC4305FA03FCFF
:100720004CEA040491F803C0BCF1280F05D100F194
:10073000080C08FA0CF8C2F8148091F803C0BCF158
:10074000480F07D100F1080C4FF0010808FA0CF827
:10075000C2F81080401C0828CED35460BDE8F08158
:100760000161704700BFFEE74CF6CC4001490860CC
:10077000704700000030004010B500F013F810BDC5
:1007800070B505460C4645F2555000F01FF8284656
:1007900000F010F8204600F013F800F003F8FFF71F
:1007A000E3FF70BD4AF6AA200149086070470000C7
:1007B00000300040014948607047000000300040B0
:1007C000014988607047000000300040014908601E
:1007D000704700000030004008B50121402000F0C3
:1007E000E1F84020ADF8000010208DF80300032050
:1007F0008DF8020069460948FFF727FF40210748A6
:10080000FFF7AEFF2020ADF8000069460348FFF770
:100810001CFF20210148FFF7A3FF08BD001801407D
:1008200010B517A0FFF7DCFC0A2000F0EBFB16A0C8
:10083000FFF7D6FC0A2000F0E5FB16A0FFF7D0FC7E
:100840000A2000F0DFFB16A0FFF7CAFC142000F01E
:10085000D9FB17A0FFF7C4FC142000F0D3FB0A203B
:1008600000F0D0FB1FA0FFF7BBFC0A2000F0CAFB82
:1008700020211E48FFF7ACFD00201D49088010BD57
:1008800041540D0A0000000041542B4350494E3F93
:100890000D0A000041542B4353510D0A0000000083
:1008A00041542B43474143543D312C310D0A000044
:1008B00041542B4D49504F50454E3D312C2254430D
:1008C00050222C227365727665722E6E617461708F
:1008D00070667265652E6363222C34333332380DB3
:1008E0000A000000415445300D0A00003C20002061
:1008F0001000002000BFFEE77047000070B5002127
:1009000000230F22C47804B3154C246804F4E06477
:10091000C4F5E064210AC1F10403CA40447804FA32
:1009200003F184781440214309010E4C0678A15547
:10093000047804F01F050124AC4005786D11AD006A
:1009400005F1E025C5F8004109E0047804F01F0531
:100950000124AC40044D0678761145F8264070BD60
:100960000CED00E000E400E080E100E0024901431A
:10097000024A1160704700000000FA050CED00E02B
:100980007047000029B1064AD2690243044BDA617C
:1009900004E0034AD2698243014BDA6170470000E8
:1009A0000010024029B1064A92690243044B9A6141
:1009B00004E0034A92698243014B9A617047000048
:1009C0000010024030B500210022002400232D4DEC
:1009D0006D6805F00C0121B1042905D0082923D147
:1009E00005E0294D056022E0274D05601FE0254DFB
:1009F0006D6805F47012234D6D6805F4803402258E
:100A000005EB92421CB9214D554305600BE01D4D8D
:100A10006D6805F400351DB11C4D5543056002E0BD
:100A2000194D5543056002E0174D056000BF00BF3A
:100A3000144D6D6805F0F0010909154D6B5C0568F2
:100A4000DD4045600F4D6D6805F4E061090A104D09
:100A50006B5C4568DD4085600A4D6D6805F460514A
:100A6000C90A0B4D6B5C4568DD40C560054D6D687E
:100A700005F44041890B074D6B5CC568B5FBF3F588
:100A8000056130BD0010024000127A0000093D00EF
:100A9000280000203800002000B587B00121082080
:100AA000FFF780FF01218803FFF76CFF4FF46040E0
:100AB000ADF8180018208DF81B0003208DF81A00DF
:100AC00006A91848FFF7C1FD4FF460411548FFF72C
:100AD00047FE0020ADF804004FF48270ADF8060028
:100AE0000020ADF808000220ADF80A000120ADF8A2
:100AF0000C004002ADF80E003820ADF810000020C8
:100B0000ADF812000720ADF8140001A9064800F066
:100B100065F80121044800F047F8FF2000F006F8CE
:100B200007B000BD000C01400038004070B505461C
:100B3000002405E0601CC4B2C82C01DD002070BD9B
:100B400002210E4800F03CF80028F3D029460B485B
:100B500000F042F8002405E0601CC4B2C82C01DD9E
:100B60000020ECE70121054800F02AF80028F3D026
:100B7000024800F02EF8C0B2E1E700000038004063
:100B800010B50446074800884FF6C771084005496C
:100B9000088008460088204308800121014800F0B1
:100BA00003F810BD0038004021B1028842F0400235
:100BB000028004E002884FF6BF731A40028070473B
:100BC0000246002013890B400BB1012000E00020F9
:100BD00070470146888970478181704710B50022AF
:100BE000028802F441520B884C8823438C882343AB
:100BF000CC8823430C8923434C8923438C8923438A
:100C0000CC8923431A430280838B4FF2FF74234025
:100C100083830B8A038210BD704710B500F002F881
:100C200010BD00000CB50020019000903348006812
:100C300040F480303149086000BF3048006800F45B
:100C4000003000900198401C0190009818B901985C
:100C5000B0F5A06FF1D12948006800F4003010B160
:100C60000120009001E0002000900098012843D16D
:100C70002348006840F010002149086008460068D9
:100C800020F0030008600846006840F00200086099
:100C90001A48406819494860084640684860084654
:100CA000406840F4806048600846406820F47C104A
:100CB00048600846406840F4E8104860084600680C
:100CC00040F08070086000BF0C48006800F00070C1
:100CD0000028F9D00948406820F00300074948601F
:100CE0000846406840F00200486000BF0348406882
:100CF00000F00C000828F9D10CBD000000100240E3
:100D000000200240042808D14FF0E021096941F099
:100D100004014FF0E022116107E04FF0E021096982
:100D200021F004014FF0E02211617047704700008C
:100D300010B51348006840F00100114908600846EA
:100D40004068104908400E494860084600680E494E
:100D500008400B4908600846006820F480200860BD
:100D60000846406820F4FE0048604FF41F00886089
:100D7000FFF753FF4FF000600449086010BD00000A
:100D8000001002400000FFF8FFFFF6FE08ED00E053
:100D900010B540F225511B4800F04CF800282FD028
:100DA000184800F003F9C4B217480088052818DD78
:100DB0000A2C16D1154814490988445414A1FFF788
:100DC000F5FA18B101201449087002E00220124916
:100DD000087000200C49088020210C48FFF7F8FA21
:100DE0000EE00A4808490988445407480088401C16
:100DF00005490880084600881F2801DD002008807A
:100E000010BD000000380140100000203C200020F0
:100E100053454E44204F4B000100002021B18289F0
:100E200042F40052828104E082894DF6FF731A4039
:100E30008281704770B502460024002300250020FF
:100E400040F66A16B14200D100BFC1F3421501F06D
:100E50001F03012606FA03F3012D02D196893340C0
:100E600006E0022D02D1168A334001E0968A334013
:100E70000C12012606FA04F41688344013B10CB1A2
:100E8000012000E0002070BDF0B5034600240026DC
:100E90000025002040F66A17B94200D100BF18466D
:100EA000C1F3421401F01F06012707FA06F5012CD1
:100EB00001D10C3004E0022C01D1103000E01430DC
:100EC0001AB107682F43076002E00768AF43076065
:100ED000F0BD00002DE9F04786B005460E4600241F
:100EE000A24600BFA1460027B08900B100BF2F462F
:100EF0002C8A4CF6FF700440F08804432C82AC89A5
:100F00004EF6F3100440B0883189084371890843D4
:100F10000443AC81AC8A4FF6FF400440B0890443DF
:100F2000AC8201A8FFF74EFD1F48874202D1DDF8D1
:100F300010A001E0DDF80CA0A88900F4004040B149
:100F40000AEBCA0000EB0A1031684900B0FBF1F867
:100F500007E00AEBCA0000EB0A1031688900B0FB19
:100F6000F1F86420B8FBF0F004012009642101FBD2
:100F70001089A88900F4004040B1322000EBC9007C
:100F8000B0FBF1F000F00700044308E0322000EB72
:100F900009106421B0FBF1F000F00F0004432C8134
:100FA00006B0BDE8F087000000380140014688889F
:100FB000C0F30800704700BFFEE700BF70470000A5
:100FC00010B56FF00400FFF79DFE0A4800680A495B
:100FD000B0FBF1F0094908700846007800EB4001C9
:100FE000C1EBC0104FF6FF7101EAC0000449088050
:100FF00010BD00001400002000127A00060000203E
:10100000080000200146114A12884A434FF0E023AD
:101010005A6100229A611A46126942F001021A616D
:1010200000BF4FF0E022106900F001021AB100F495
:101030008032002AF5D04FF0E022126922F001023E
:101040004FF0E0231A6100229A61704708000020E7
:101050000146114A12784A434FF0E0235A610022B8
:101060009A611A46126942F001021A6100BF4FF0FC
:10107000E022106900F001021AB100F48032002A67
:10108000F5D04FF0E022126922F001024FF0E02388
:101090001A6100229A6170470600002000BF054ACD
:1010A000128802F04002002AF9D0C2B2014B1B1D87
:1010B0001A807047003801408AB0FFF781FF4FF473
:1010C000A060FFF753FC4FF4613000F0DFF9FFF749
:1010D00083FB00F057FAB6A0FFF782F8B74800F09C
:1010E00043FB0090B6A00099FFF77AF8B94800F0EA
:1010F0003BFB0190B748001D00F036FB0090B6A006
:10110000DDE90021FFF76CF80120B9490860FFF71D
:1011100087FB4FF4803001900098029000200690E9
:1011200040F271210520FFF72BFB0120B149087027
:101130003CE1B0480078022805D1AFA0FFF750F895
:101140000120AC4908700020079000BF6A4601A941
:10115000A04800F059FA0299009888422ED10198CF
:10116000B0F5805F2AD201200990DDE900018842B4
:1011700003D8DDE90010401A04E00098C0F5805063
:101180000199084480B20390BDF80C00402804DAAD
:1011900000200890012006900FE0A048A04909789F
:1011A00030F81100BDF80C100844B0F5805F02DD86
:1011B0000020089001E00120089010E09DF81C003C
:1011C000411CC9B20791052808DD0020089095A0B0
:1011D000DDE900230299FFF703F800E0B6E700BF5E
:1011E0009DF8240001287DD19DF820000128FAD126
:1011F00000207F49091F086092A0DDE90012FEF778
:10120000EFFFDDE90001884224D2944A844B1B7829
:1012100002EB0332814B824C247833F81430D1181E
:101220006C4B0833009AD018BDF80C2000F04EFA31
:101230000590BDF814100098084480B204907749D6
:10124000774A127801EB42000188BDF8142011445E
:1012500001803BE0814B724C247803EB04336F4CEC
:101260006F4D2D7834F815401919009BC3F5805344
:101270009AB2584C0834009B181900F027FA0590D0
:101280007648674B1B7800EB03336448644C247842
:1012900030F814001844BDF81430C118019882B217
:1012A0004C48083000F012FA0490BDF81400BDF864
:1012B0001010084480B205905849594A127801EB41
:1012C00042000188BDF81420114401806349544A4A
:1012D000127801EB0231514A514B1B7832F813203E
:1012E000114400E02EE0BDF81420881ABDF8141057
:1012F00009B2FFF793F900200790099008904FF486
:101300008030029000BFBDF810103248001D00F080
:101310007BFA3048001D00F027FA02909DF81C006F
:10132000411CC9B20791052806DDBDF810204CA06C
:101330000299FEF755FF04E0BDF8101002988842AC
:10134000E1D100BF35483649097830F81100B0F5D1
:10135000806F20DD2748007801281CD12F4A304BB0
:101360001B7832F813103D4A2D4B1B7802EB0330EB
:1013700000F0DCF800201F4908702948007880F050
:1013800001002749087000202449254A127821F8D5
:101390001200FFF7F1F99DF8180038B10120144947
:1013A000091F086000200690FFF7E6F9C1E600007B
:1013B00068616C7420637075090000001870101A61
:1013C000726561642074657374203D2025780D0A70
:1013D0000000000000AC33007770203D2025642C15
:1013E0002020207270203D2025640D0A000000009E
:1013F00098012342010000200D0A5468652072659F
:101400007475726E2076616C7565206973206E6FDD
:101410007420274F4B27210D0A00000002000020F6
:1014200000000020727270203D2025642C20207264
:1014300070203D2025642C20207770203D202564DD
:10144000210D0A00202020207270203D2025642CD0
:1014500020207770203D2025640D0A003C000020EC
:101460007772697465207270203D2025642C206E8F
:101470006F742065712025642C20736F20697320A0
:101480006572726F72210D0A0000000010B586B0FF
:101490000446012144F20400FFF784FA4FF400707F
:1014A000ADF8140003208DF8160018208DF81700F1
:1014B00005A91C48FFF7C9F84FF48060ADF8140087
:1014C00004208DF8170005A91648FFF7BEF825205F
:1014D0008DF8000003208DF801008DF80200012036
:1014E0008DF803006846FFF709FA01940020ADF873
:1014F0000800ADF80A00ADF80C00ADF810000C20A3
:10150000ADF80E0001A90848FFF7E4FC012240F203
:1015100025510548FFF7B8FC01210348FFF77EFC81
:1015200006B010BD00080140003801407CB50646F9
:101530000C4622460CA16846FEF75EFE69460BA0EB
:10154000FEF74EFE00250CE0705D0D49088000BFDF
:101550000B48001F008800F040000028F8D0681CED
:1015600085B2A542F0DB7CBD2564000041542B4DC3
:10157000495053454E443D312C25730D0A0000005F
:10158000043801401CB51CA000680190012108200E
:10159000FFF708FA4FF48050ADF8000010208DF8E6
:1015A000030003208DF8020069461448FFF74DF848
:1015B0004FF480511148FFF7D3F80120104908601B
:1015C000FFF76AFA0020FFF7DBFA00200D49C1F8A7
:1015D000B001002407E001A9085DFFF7A7FA0A207F
:1015E000FFF736FD641C022CF5DB0120044908607E
:1015F0001420FFF72DFD1CBD111F0000000C014041
:10160000B0812142008021422DE9FF4705460E4668
:10161000174600200290039000900190E8460DF1DB
:1016200008090B208DF80800280E8DF80900280CF9
:101630008DF80A00280A8DF80B00E8B28DF80C002E
:10164000002021490860002404E019F8010BFFF78D
:101650006DFA641C052CF8DB002403E0FF20FFF783
:1016600065FA641C042CF9DB002405E0FF20FFF779
:101670005DFA08F8010B641C082CF7DB0120124905
:1016800008601420FFF7E4FC9DF807009DF80610A1
:1016900040EA01209DF8051040EA01409DF8041041
:1016A00040EA016038609DF803009DF8021040EAAE
:1016B00001209DF8011040EA01409DF8001040EA29
:1016C00001603060BDE8FF87B08121422DE9F0471D
:1016D00004460F46164604F00308042E02DA0020E2
:1016E000BDE8F087C8F10401701AC11700EB9171D1
:1016F0008910A0EB810101F0FF0900201949086061
:101700000B20FFF713FA200EFFF710FAC4F307407F
:10171000FFF70CFAC4F30720FFF708FAE0B2FFF76F
:1017200005FA002504E0FF20FFF700FA681C85B2E7
:1017300008F10400A842F6DC002506E0FF20FFF7D0
:10174000F5F907F8010B681C85B2A6EB0900A84261
:10175000F4DC0120034908600A20FFF779FC2846E1
:10176000BEE70000B08121422DE9FE43054600207E
:101770000190029000906E4601AF80460B208DF8DC
:101780000400280E8DF80500280C8DF80600280AA4
:101790008DF80700E8B28DF80800002019490860AC
:1017A000002404E017F8010BFFF7C0F9641C052CB6
:1017B000F8DB002403E0FF20FFF7B8F9641C042CD9
:1017C000F9DB002405E0FF20FFF7B0F906F8010B74
:1017D000641C042CF7DB01200A4908601420FFF781
:1017E00037FC9DF803009DF8021040EA01209DF8A7
:1017F000011040EA01409DF8001040EA01684046AF
:10180000BDE8FE83B0812142FEB504460D460020AE
:101810000090019002906F4602208DF80000200E8B
:101820008DF80100200C8DF80200200A8DF80300CD
:10183000E0B28DF80400280E8DF80500280C8DF814
:101840000600280A8DF80700E8B28DF8080000208D
:1018500008490860002604E017F8010BFFF766F955
:10186000761C092EF8DB0120024908601420FFF7DE
:10187000EFFBFEBDB0812142303132333435363793
:1018800038394142434445464030580030313233C4
:1018900034353637383961626364656640307800C4
:1018A000C0180008000000203C00000028010008CB
:1018B000FC1800083C0000208426000044010008B9
:1018C0000001000000000000000000000000000017
:1018D0000000000000A24A04000000000000000018
:1018E00001020304060708090000000001020304C6
:0C18F000010203040607080902040608B0
:04000005080000ED02
:00000001FF
